{
  "_format": "hh-sol-artifact-1",
  "contractName": "MyNFT",
  "sourceName": "contracts/MyNFT.sol",
  "abi": [
    {
      "inputs": [],
      "stateMutability": "nonpayable",
      "type": "constructor"
    },
    {
      "anonymous": false,
      "inputs": [
        {
          "indexed": true,
          "internalType": "address",
          "name": "owner",
          "type": "address"
        },
        {
          "indexed": true,
          "internalType": "address",
          "name": "approved",
          "type": "address"
        },
        {
          "indexed": true,
          "internalType": "uint256",
          "name": "tokenId",
          "type": "uint256"
        }
      ],
      "name": "Approval",
      "type": "event"
    },
    {
      "anonymous": false,
      "inputs": [
        {
          "indexed": true,
          "internalType": "address",
          "name": "owner",
          "type": "address"
        },
        {
          "indexed": true,
          "internalType": "address",
          "name": "operator",
          "type": "address"
        },
        {
          "indexed": false,
          "internalType": "bool",
          "name": "approved",
          "type": "bool"
        }
      ],
      "name": "ApprovalForAll",
      "type": "event"
    },
    {
      "anonymous": false,
      "inputs": [
        {
          "indexed": false,
          "internalType": "address",
          "name": "sender",
          "type": "address"
        },
        {
          "indexed": false,
          "internalType": "uint256",
          "name": "tokenId",
          "type": "uint256"
        }
      ],
      "name": "NewEpicNFTMinted",
      "type": "event"
    },
    {
      "anonymous": false,
      "inputs": [
        {
          "indexed": true,
          "internalType": "address",
          "name": "from",
          "type": "address"
        },
        {
          "indexed": true,
          "internalType": "address",
          "name": "to",
          "type": "address"
        },
        {
          "indexed": true,
          "internalType": "uint256",
          "name": "tokenId",
          "type": "uint256"
        }
      ],
      "name": "Transfer",
      "type": "event"
    },
    {
      "inputs": [
        {
          "internalType": "address",
          "name": "to",
          "type": "address"
        },
        {
          "internalType": "uint256",
          "name": "tokenId",
          "type": "uint256"
        }
      ],
      "name": "approve",
      "outputs": [],
      "stateMutability": "nonpayable",
      "type": "function"
    },
    {
      "inputs": [
        {
          "internalType": "address",
          "name": "owner",
          "type": "address"
        }
      ],
      "name": "balanceOf",
      "outputs": [
        {
          "internalType": "uint256",
          "name": "",
          "type": "uint256"
        }
      ],
      "stateMutability": "view",
      "type": "function"
    },
    {
      "inputs": [
        {
          "internalType": "uint256",
          "name": "tokenId",
          "type": "uint256"
        }
      ],
      "name": "getApproved",
      "outputs": [
        {
          "internalType": "address",
          "name": "",
          "type": "address"
        }
      ],
      "stateMutability": "view",
      "type": "function"
    },
    {
      "inputs": [],
      "name": "getTotalMintCount",
      "outputs": [
        {
          "internalType": "uint256",
          "name": "",
          "type": "uint256"
        }
      ],
      "stateMutability": "view",
      "type": "function"
    },
    {
      "inputs": [
        {
          "internalType": "address",
          "name": "owner",
          "type": "address"
        },
        {
          "internalType": "address",
          "name": "operator",
          "type": "address"
        }
      ],
      "name": "isApprovedForAll",
      "outputs": [
        {
          "internalType": "bool",
          "name": "",
          "type": "bool"
        }
      ],
      "stateMutability": "view",
      "type": "function"
    },
    {
      "inputs": [],
      "name": "makeAnNFT",
      "outputs": [],
      "stateMutability": "nonpayable",
      "type": "function"
    },
    {
      "inputs": [],
      "name": "name",
      "outputs": [
        {
          "internalType": "string",
          "name": "",
          "type": "string"
        }
      ],
      "stateMutability": "view",
      "type": "function"
    },
    {
      "inputs": [
        {
          "internalType": "uint256",
          "name": "tokenId",
          "type": "uint256"
        }
      ],
      "name": "ownerOf",
      "outputs": [
        {
          "internalType": "address",
          "name": "",
          "type": "address"
        }
      ],
      "stateMutability": "view",
      "type": "function"
    },
    {
      "inputs": [
        {
          "internalType": "uint256",
          "name": "tokenId",
          "type": "uint256"
        }
      ],
      "name": "pickRandomColor",
      "outputs": [
        {
          "internalType": "string",
          "name": "",
          "type": "string"
        }
      ],
      "stateMutability": "view",
      "type": "function"
    },
    {
      "inputs": [
        {
          "internalType": "uint256",
          "name": "tokenId",
          "type": "uint256"
        }
      ],
      "name": "pickRandomFirstWord",
      "outputs": [
        {
          "internalType": "string",
          "name": "",
          "type": "string"
        }
      ],
      "stateMutability": "view",
      "type": "function"
    },
    {
      "inputs": [
        {
          "internalType": "uint256",
          "name": "tokenId",
          "type": "uint256"
        }
      ],
      "name": "pickRandomSecondWord",
      "outputs": [
        {
          "internalType": "string",
          "name": "",
          "type": "string"
        }
      ],
      "stateMutability": "view",
      "type": "function"
    },
    {
      "inputs": [
        {
          "internalType": "uint256",
          "name": "tokenId",
          "type": "uint256"
        }
      ],
      "name": "pickRandomThirdWord",
      "outputs": [
        {
          "internalType": "string",
          "name": "",
          "type": "string"
        }
      ],
      "stateMutability": "view",
      "type": "function"
    },
    {
      "inputs": [
        {
          "internalType": "address",
          "name": "from",
          "type": "address"
        },
        {
          "internalType": "address",
          "name": "to",
          "type": "address"
        },
        {
          "internalType": "uint256",
          "name": "tokenId",
          "type": "uint256"
        }
      ],
      "name": "safeTransferFrom",
      "outputs": [],
      "stateMutability": "nonpayable",
      "type": "function"
    },
    {
      "inputs": [
        {
          "internalType": "address",
          "name": "from",
          "type": "address"
        },
        {
          "internalType": "address",
          "name": "to",
          "type": "address"
        },
        {
          "internalType": "uint256",
          "name": "tokenId",
          "type": "uint256"
        },
        {
          "internalType": "bytes",
          "name": "_data",
          "type": "bytes"
        }
      ],
      "name": "safeTransferFrom",
      "outputs": [],
      "stateMutability": "nonpayable",
      "type": "function"
    },
    {
      "inputs": [
        {
          "internalType": "address",
          "name": "operator",
          "type": "address"
        },
        {
          "internalType": "bool",
          "name": "approved",
          "type": "bool"
        }
      ],
      "name": "setApprovalForAll",
      "outputs": [],
      "stateMutability": "nonpayable",
      "type": "function"
    },
    {
      "inputs": [
        {
          "internalType": "bytes4",
          "name": "interfaceId",
          "type": "bytes4"
        }
      ],
      "name": "supportsInterface",
      "outputs": [
        {
          "internalType": "bool",
          "name": "",
          "type": "bool"
        }
      ],
      "stateMutability": "view",
      "type": "function"
    },
    {
      "inputs": [],
      "name": "symbol",
      "outputs": [
        {
          "internalType": "string",
          "name": "",
          "type": "string"
        }
      ],
      "stateMutability": "view",
      "type": "function"
    },
    {
      "inputs": [
        {
          "internalType": "uint256",
          "name": "tokenId",
          "type": "uint256"
        }
      ],
      "name": "tokenURI",
      "outputs": [
        {
          "internalType": "string",
          "name": "",
          "type": "string"
        }
      ],
      "stateMutability": "view",
      "type": "function"
    },
    {
      "inputs": [
        {
          "internalType": "address",
          "name": "from",
          "type": "address"
        },
        {
          "internalType": "address",
          "name": "to",
          "type": "address"
        },
        {
          "internalType": "uint256",
          "name": "tokenId",
          "type": "uint256"
        }
      ],
      "name": "transferFrom",
      "outputs": [],
      "stateMutability": "nonpayable",
      "type": "function"
    }
  ],
  "bytecode": "0x608060405260405180610160016040528061012f81526020016200478861012f9139600890805190602001906200003892919062000861565b5060405180610100016040528060d38152602001620048b760d39139600990805190602001906200006b92919062000861565b506040518060800160405280605681526020016200498a60569139600a90805190602001906200009d92919062000861565b506040518060c001604052806040518060400160405280600a81526020017f41434345505441424c450000000000000000000000000000000000000000000081525081526020016040518060400160405280600881526020017f504c454153494e4700000000000000000000000000000000000000000000000081525081526020016040518060400160405280600a81526020017f47524154494659494e470000000000000000000000000000000000000000000081525081526020016040518060400160405280600a81526020017f53415449534659494e470000000000000000000000000000000000000000000081525081526020016040518060400160405280600681526020017f535547415259000000000000000000000000000000000000000000000000000081525081526020016040518060400160405280600781526020017f484f4e4559454400000000000000000000000000000000000000000000000000815250815250600b9060066200021b929190620008f2565b506040518060c001604052806040518060400160405280600881526020017f4153544f4e49534800000000000000000000000000000000000000000000000081525081526020016040518060400160405280600781526020017f424146464c45530000000000000000000000000000000000000000000000000081525081526020016040518060400160405280600a81526020017f424557494c44455245440000000000000000000000000000000000000000000081525081526020016040518060400160405280600681526020017f414d415a4544000000000000000000000000000000000000000000000000000081525081526020016040518060400160405280600781526020017f5354554e4e45440000000000000000000000000000000000000000000000000081525081526020016040518060400160405280600781526020017f5354414747455200000000000000000000000000000000000000000000000000815250815250600c90600662000399929190620008f2565b506040518060c001604052806040518060400160405280600a81526020017f415454524143544956450000000000000000000000000000000000000000000081525081526020016040518060400160405280600681526020017f505245545459000000000000000000000000000000000000000000000000000081525081526020016040518060400160405280600881526020017f414c4c5552494e4700000000000000000000000000000000000000000000000081525081526020016040518060400160405280600881526020017f434841524d494e4700000000000000000000000000000000000000000000000081525081526020016040518060400160405280600781526020017f57494e534f4d450000000000000000000000000000000000000000000000000081525081526020016040518060400160405280600781526020017f454c4547414e5400000000000000000000000000000000000000000000000000815250815250600d90600662000517929190620008f2565b506040518060c001604052806040518060400160405280600381526020017f726564000000000000000000000000000000000000000000000000000000000081525081526020016040518060400160405280600781526020017f233038433241380000000000000000000000000000000000000000000000000081525081526020016040518060400160405280600581526020017f626c61636b00000000000000000000000000000000000000000000000000000081525081526020016040518060400160405280600681526020017f79656c6c6f77000000000000000000000000000000000000000000000000000081525081526020016040518060400160405280600481526020017f626c75650000000000000000000000000000000000000000000000000000000081525081526020016040518060400160405280600581526020017f677265656e000000000000000000000000000000000000000000000000000000815250815250600e90600662000695929190620008f2565b50348015620006a357600080fd5b506040518060400160405280600781526020017f4a6f686e4e4654000000000000000000000000000000000000000000000000008152506040518060400160405280600881526020017f4a6f686e65787a7900000000000000000000000000000000000000000000000081525081600090805190602001906200072892919062000861565b5080600190805190602001906200074192919062000861565b5050506200078f6040518060400160405280601e81526020017f54686973206973206d79204e465420636f6e74726163742e20576f61682100008152506200079560201b620014121760201c565b62000b13565b6200083581604051602401620007ac919062000a27565b6040516020818303038152906040527f41304fac000000000000000000000000000000000000000000000000000000007bffffffffffffffffffffffffffffffffffffffffffffffffffffffff19166020820180517bffffffffffffffffffffffffffffffffffffffffffffffffffffffff83818316178352505050506200083860201b60201c565b50565b60008151905060006a636f6e736f6c652e6c6f679050602083016000808483855afa5050505050565b8280546200086f9062000a9d565b90600052602060002090601f016020900481019282620008935760008555620008df565b82601f10620008ae57805160ff1916838001178555620008df565b82800160010185558215620008df579182015b82811115620008de578251825591602001919060010190620008c1565b5b509050620008ee919062000959565b5090565b82805482825590600052602060002090810192821562000946579160200282015b82811115620009455782518290805190602001906200093492919062000861565b509160200191906001019062000913565b5b50905062000955919062000978565b5090565b5b80821115620009745760008160009055506001016200095a565b5090565b5b808211156200099c5760008181620009929190620009a0565b5060010162000979565b5090565b508054620009ae9062000a9d565b6000825580601f10620009c25750620009e3565b601f016020900490600052602060002090810190620009e2919062000959565b5b50565b6000620009f38262000a4b565b620009ff818562000a56565b935062000a1181856020860162000a67565b62000a1c8162000b02565b840191505092915050565b6000602082019050818103600083015262000a438184620009e6565b905092915050565b600081519050919050565b600082825260208201905092915050565b60005b8381101562000a8757808201518184015260208101905062000a6a565b8381111562000a97576000848401525b50505050565b6000600282049050600182168062000ab657607f821691505b6020821081141562000acd5762000acc62000ad3565b5b50919050565b7f4e487b7100000000000000000000000000000000000000000000000000000000600052602260045260246000fd5b6000601f19601f8301169050919050565b613c658062000b236000396000f3fe608060405234801561001057600080fd5b50600436106101215760003560e01c806370a08231116100ad578063b88d4fde11610071578063b88d4fde14610340578063c575757a1461035c578063c87b56dd1461038c578063e4d098e1146103bc578063e985e9c5146103c657610121565b806370a082311461028857806395d89b41146102b85780639b8ab691146102d6578063a22cb465146102f4578063b187301f1461031057610121565b806323b872dd116100f457806323b872dd146101c05780632de38d68146101dc57806342842e0e1461020c578063514dc8c6146102285780636352211e1461025857610121565b806301ffc9a71461012657806306fdde0314610156578063081812fc14610174578063095ea7b3146101a4575b600080fd5b610140600480360381019061013b91906126a5565b6103f6565b60405161014d9190612e31565b60405180910390f35b61015e6104d8565b60405161016b9190612e4c565b60405180910390f35b61018e600480360381019061018991906126f7565b61056a565b60405161019b9190612da1565b60405180910390f35b6101be60048036038101906101b99190612669565b6105ef565b005b6101da60048036038101906101d59190612563565b610707565b005b6101f660048036038101906101f191906126f7565b610767565b6040516102039190612e4c565b60405180910390f35b61022660048036038101906102219190612563565b610885565b005b610242600480360381019061023d91906126f7565b6108a5565b60405161024f9190612e4c565b60405180910390f35b610272600480360381019061026d91906126f7565b6109c3565b60405161027f9190612da1565b60405180910390f35b6102a2600480360381019061029d91906124fe565b610a75565b6040516102af91906130cc565b60405180910390f35b6102c0610b2d565b6040516102cd9190612e4c565b60405180910390f35b6102de610bbf565b6040516102eb91906130cc565b60405180910390f35b61030e6004803603810190610309919061262d565b610bd0565b005b61032a600480360381019061032591906126f7565b610d51565b6040516103379190612e4c565b60405180910390f35b61035a600480360381019061035591906125b2565b610e6f565b005b610376600480360381019061037191906126f7565b610ed1565b6040516103839190612e4c565b60405180910390f35b6103a660048036038101906103a191906126f7565b610fef565b6040516103b39190612e4c565b60405180910390f35b6103c4611141565b005b6103e060048036038101906103db9190612527565b61137e565b6040516103ed9190612e31565b60405180910390f35b60007f80ac58cd000000000000000000000000000000000000000000000000000000007bffffffffffffffffffffffffffffffffffffffffffffffffffffffff1916827bffffffffffffffffffffffffffffffffffffffffffffffffffffffff191614806104c157507f5b5e139f000000000000000000000000000000000000000000000000000000007bffffffffffffffffffffffffffffffffffffffffffffffffffffffff1916827bffffffffffffffffffffffffffffffffffffffffffffffffffffffff1916145b806104d157506104d0826114ab565b5b9050919050565b6060600080546104e790613360565b80601f016020809104026020016040519081016040528092919081815260200182805461051390613360565b80156105605780601f1061053557610100808354040283529160200191610560565b820191906000526020600020905b81548152906001019060200180831161054357829003601f168201915b5050505050905090565b600061057582611515565b6105b4576040517f08c379a00000000000000000000000000000000000000000000000000000000081526004016105ab9061302c565b60405180910390fd5b6004600083815260200190815260200160002060009054906101000a900473ffffffffffffffffffffffffffffffffffffffff169050919050565b60006105fa826109c3565b90508073ffffffffffffffffffffffffffffffffffffffff168373ffffffffffffffffffffffffffffffffffffffff16141561066b576040517f08c379a00000000000000000000000000000000000000000000000000000000081526004016106629061308c565b60405180910390fd5b8073ffffffffffffffffffffffffffffffffffffffff1661068a611581565b73ffffffffffffffffffffffffffffffffffffffff1614806106b957506106b8816106b3611581565b61137e565b5b6106f8576040517f08c379a00000000000000000000000000000000000000000000000000000000081526004016106ef90612f6c565b60405180910390fd5b6107028383611589565b505050565b610718610712611581565b82611642565b610757576040517f08c379a000000000000000000000000000000000000000000000000000000000815260040161074e906130ac565b60405180910390fd5b610762838383611720565b505050565b6060600061079b6107778461197c565b6040516020016107879190612d3b565b604051602081830303815290604052611b29565b9050600b80549050816107ae919061340c565b9050600b81815481106107ea577f4e487b7100000000000000000000000000000000000000000000000000000000600052603260045260246000fd5b9060005260206000200180546107ff90613360565b80601f016020809104026020016040519081016040528092919081815260200182805461082b90613360565b80156108785780601f1061084d57610100808354040283529160200191610878565b820191906000526020600020905b81548152906001019060200180831161085b57829003601f168201915b5050505050915050919050565b6108a083838360405180602001604052806000815250610e6f565b505050565b606060006108d96108b58461197c565b6040516020016108c59190612d7f565b604051602081830303815290604052611b29565b9050600e80549050816108ec919061340c565b9050600e8181548110610928577f4e487b7100000000000000000000000000000000000000000000000000000000600052603260045260246000fd5b90600052602060002001805461093d90613360565b80601f016020809104026020016040519081016040528092919081815260200182805461096990613360565b80156109b65780601f1061098b576101008083540402835291602001916109b6565b820191906000526020600020905b81548152906001019060200180831161099957829003601f168201915b5050505050915050919050565b6000806002600084815260200190815260200160002060009054906101000a900473ffffffffffffffffffffffffffffffffffffffff169050600073ffffffffffffffffffffffffffffffffffffffff168173ffffffffffffffffffffffffffffffffffffffff161415610a6c576040517f08c379a0000000000000000000000000000000000000000000000000000000008152600401610a6390612fac565b60405180910390fd5b80915050919050565b60008073ffffffffffffffffffffffffffffffffffffffff168273ffffffffffffffffffffffffffffffffffffffff161415610ae6576040517f08c379a0000000000000000000000000000000000000000000000000000000008152600401610add90612f8c565b60405180910390fd5b600360008373ffffffffffffffffffffffffffffffffffffffff1673ffffffffffffffffffffffffffffffffffffffff168152602001908152602001600020549050919050565b606060018054610b3c90613360565b80601f0160208091040260200160405190810160405280929190818152602001828054610b6890613360565b8015610bb55780601f10610b8a57610100808354040283529160200191610bb5565b820191906000526020600020905b815481529060010190602001808311610b9857829003601f168201915b5050505050905090565b6000610bcb6007611b5c565b905090565b610bd8611581565b73ffffffffffffffffffffffffffffffffffffffff168273ffffffffffffffffffffffffffffffffffffffff161415610c46576040517f08c379a0000000000000000000000000000000000000000000000000000000008152600401610c3d90612f2c565b60405180910390fd5b8060056000610c53611581565b73ffffffffffffffffffffffffffffffffffffffff1673ffffffffffffffffffffffffffffffffffffffff16815260200190815260200160002060008473ffffffffffffffffffffffffffffffffffffffff1673ffffffffffffffffffffffffffffffffffffffff16815260200190815260200160002060006101000a81548160ff0219169083151502179055508173ffffffffffffffffffffffffffffffffffffffff16610d00611581565b73ffffffffffffffffffffffffffffffffffffffff167f17307eab39ab6107e8899845ad3d59bd9653f200f220920489ca2b5937696c3183604051610d459190612e31565b60405180910390a35050565b60606000610d85610d618461197c565b604051602001610d719190612cd4565b604051602081830303815290604052611b29565b9050600c8054905081610d98919061340c565b9050600c8181548110610dd4577f4e487b7100000000000000000000000000000000000000000000000000000000600052603260045260246000fd5b906000526020600020018054610de990613360565b80601f0160208091040260200160405190810160405280929190818152602001828054610e1590613360565b8015610e625780601f10610e3757610100808354040283529160200191610e62565b820191906000526020600020905b815481529060010190602001808311610e4557829003601f168201915b5050505050915050919050565b610e80610e7a611581565b83611642565b610ebf576040517f08c379a0000000000000000000000000000000000000000000000000000000008152600401610eb6906130ac565b60405180910390fd5b610ecb84848484611b6a565b50505050565b60606000610f05610ee18461197c565b604051602001610ef19190612cb2565b604051602081830303815290604052611b29565b9050600d8054905081610f18919061340c565b9050600d8181548110610f54577f4e487b7100000000000000000000000000000000000000000000000000000000600052603260045260246000fd5b906000526020600020018054610f6990613360565b80601f0160208091040260200160405190810160405280929190818152602001828054610f9590613360565b8015610fe25780601f10610fb757610100808354040283529160200191610fe2565b820191906000526020600020905b815481529060010190602001808311610fc557829003601f168201915b5050505050915050919050565b6060610ffa82611515565b611039576040517f08c379a00000000000000000000000000000000000000000000000000000000081526004016110309061300c565b60405180910390fd5b600060066000848152602001908152602001600020805461105990613360565b80601f016020809104026020016040519081016040528092919081815260200182805461108590613360565b80156110d25780601f106110a7576101008083540402835291602001916110d2565b820191906000526020600020905b8154815290600101906020018083116110b557829003601f168201915b5050505050905060006110e3611bc6565b90506000815114156110f957819250505061113c565b60008251111561112e578082604051602001611116929190612c14565b6040516020818303038152906040529250505061113c565b61113784611bdd565b925050505b919050565b600061114d6007611b5c565b905060328110611192576040517f08c379a000000000000000000000000000000000000000000000000000000000815260040161118990612ecc565b60405180910390fd5b600061119d82610767565b905060006111aa83610d51565b905060006111b784610ed1565b905060008383836040516020016111d093929190612c38565b604051602081830303815290604052905060006111ec866108a5565b90506000600982600a856040516020016112099493929190612c69565b6040516020818303038152906040529050600061124e8461122984611c84565b60405160200161123a929190612cf6565b604051602081830303815290604052611c84565b90506000816040516020016112639190612d5d565b60405160208183030381529060405290506112b26040518060400160405280601581526020017f0a2d2d2d2d2d2d2d2d2d2d2d2d2d2d2d2d2d2d2d2d0000000000000000000000815250611412565b6112bb81611412565b6112f96040518060400160405280601581526020017f2d2d2d2d2d2d2d2d2d2d2d2d2d2d2d2d2d2d2d2d0a0000000000000000000000815250611412565b611303338a611e42565b61130d8982611e60565b6113176007611ed4565b61133a604051806060016040528060258152602001613bcb602591398a33611eea565b7febb98688741ffa4c7589bf325de30cf7becb63de567842e1ccdb6cb949fdc82c338a60405161136b929190612e08565b60405180910390a1505050505050505050565b6000600560008473ffffffffffffffffffffffffffffffffffffffff1673ffffffffffffffffffffffffffffffffffffffff16815260200190815260200160002060008373ffffffffffffffffffffffffffffffffffffffff1673ffffffffffffffffffffffffffffffffffffffff16815260200190815260200160002060009054906101000a900460ff16905092915050565b6114a8816040516024016114269190612e4c565b6040516020818303038152906040527f41304fac000000000000000000000000000000000000000000000000000000007bffffffffffffffffffffffffffffffffffffffffffffffffffffffff19166020820180517bffffffffffffffffffffffffffffffffffffffffffffffffffffffff8381831617835250505050611f89565b50565b60007f01ffc9a7000000000000000000000000000000000000000000000000000000007bffffffffffffffffffffffffffffffffffffffffffffffffffffffff1916827bffffffffffffffffffffffffffffffffffffffffffffffffffffffff1916149050919050565b60008073ffffffffffffffffffffffffffffffffffffffff166002600084815260200190815260200160002060009054906101000a900473ffffffffffffffffffffffffffffffffffffffff1673ffffffffffffffffffffffffffffffffffffffff1614159050919050565b600033905090565b816004600083815260200190815260200160002060006101000a81548173ffffffffffffffffffffffffffffffffffffffff021916908373ffffffffffffffffffffffffffffffffffffffff160217905550808273ffffffffffffffffffffffffffffffffffffffff166115fc836109c3565b73ffffffffffffffffffffffffffffffffffffffff167f8c5be1e5ebec7d5bd14f71427d1e84f3dd0314c0f7b2291e5b200ac8c7c3b92560405160405180910390a45050565b600061164d82611515565b61168c576040517f08c379a000000000000000000000000000000000000000000000000000000000815260040161168390612f4c565b60405180910390fd5b6000611697836109c3565b90508073ffffffffffffffffffffffffffffffffffffffff168473ffffffffffffffffffffffffffffffffffffffff16148061170657508373ffffffffffffffffffffffffffffffffffffffff166116ee8461056a565b73ffffffffffffffffffffffffffffffffffffffff16145b806117175750611716818561137e565b5b91505092915050565b8273ffffffffffffffffffffffffffffffffffffffff16611740826109c3565b73ffffffffffffffffffffffffffffffffffffffff1614611796576040517f08c379a000000000000000000000000000000000000000000000000000000000815260040161178d9061304c565b60405180910390fd5b600073ffffffffffffffffffffffffffffffffffffffff168273ffffffffffffffffffffffffffffffffffffffff161415611806576040517f08c379a00000000000000000000000000000000000000000000000000000000081526004016117fd90612f0c565b60405180910390fd5b611811838383611fb2565b61181c600082611589565b6001600360008573ffffffffffffffffffffffffffffffffffffffff1673ffffffffffffffffffffffffffffffffffffffff168152602001908152602001600020600082825461186c9190613276565b925050819055506001600360008473ffffffffffffffffffffffffffffffffffffffff1673ffffffffffffffffffffffffffffffffffffffff16815260200190815260200160002060008282546118c39190613195565b92505081905550816002600083815260200190815260200160002060006101000a81548173ffffffffffffffffffffffffffffffffffffffff021916908373ffffffffffffffffffffffffffffffffffffffff160217905550808273ffffffffffffffffffffffffffffffffffffffff168473ffffffffffffffffffffffffffffffffffffffff167fddf252ad1be2c89b69c2b068fc378daa952ba7f163c4a11628f55a4df523b3ef60405160405180910390a4505050565b606060008214156119c4576040518060400160405280600181526020017f30000000000000000000000000000000000000000000000000000000000000008152509050611b24565b600082905060005b600082146119f65780806119df906133c3565b915050600a826119ef91906131eb565b91506119cc565b60008167ffffffffffffffff811115611a38577f4e487b7100000000000000000000000000000000000000000000000000000000600052604160045260246000fd5b6040519080825280601f01601f191660200182016040528015611a6a5781602001600182028036833780820191505090505b5090505b60008514611b1d57600182611a839190613276565b9150600a85611a92919061340c565b6030611a9e9190613195565b60f81b818381518110611ada577f4e487b7100000000000000000000000000000000000000000000000000000000600052603260045260246000fd5b60200101907effffffffffffffffffffffffffffffffffffffffffffffffffffffffffffff1916908160001a905350600a85611b1691906131eb565b9450611a6e565b8093505050505b919050565b600081604051602001611b3c9190612bfd565b6040516020818303038152906040528051906020012060001c9050919050565b600081600001549050919050565b611b75848484611720565b611b8184848484611fb7565b611bc0576040517f08c379a0000000000000000000000000000000000000000000000000000000008152600401611bb790612eac565b60405180910390fd5b50505050565b606060405180602001604052806000815250905090565b6060611be882611515565b611c27576040517f08c379a0000000000000000000000000000000000000000000000000000000008152600401611c1e9061306c565b60405180910390fd5b6000611c31611bc6565b90506000815111611c515760405180602001604052806000815250611c7c565b80611c5b8461197c565b604051602001611c6c929190612c14565b6040516020818303038152906040525b915050919050565b60606000825190506000811415611cad5760405180602001604052806000815250915050611e3d565b60006003600283611cbe9190613195565b611cc891906131eb565b6004611cd4919061321c565b90506000602082611ce59190613195565b67ffffffffffffffff811115611d24577f4e487b7100000000000000000000000000000000000000000000000000000000600052604160045260246000fd5b6040519080825280601f01601f191660200182016040528015611d565781602001600182028036833780820191505090505b5090506000604051806060016040528060408152602001613bf0604091399050600181016020830160005b86811015611dfa5760038101905062ffffff818a015116603f8160121c168401518060081b905060ff603f83600c1c1686015116810190508060081b905060ff603f8360061c1686015116810190508060081b905060ff603f831686015116810190508060e01b90508084526004840193505050611d81565b506003860660018114611e145760028114611e2457611e2f565b613d3d60f01b6002830352611e2f565b603d60f81b60018303525b508484525050819450505050505b919050565b611e5c82826040518060200160405280600081525061214e565b5050565b611e6982611515565b611ea8576040517f08c379a0000000000000000000000000000000000000000000000000000000008152600401611e9f90612fcc565b60405180910390fd5b80600660008481526020019081526020016000209080519060200190611ecf92919061238a565b505050565b6001816000016000828254019250508190555050565b611f84838383604051602401611f0293929190612e6e565b6040516020818303038152906040527fe3849f79000000000000000000000000000000000000000000000000000000007bffffffffffffffffffffffffffffffffffffffffffffffffffffffff19166020820180517bffffffffffffffffffffffffffffffffffffffffffffffffffffffff8381831617835250505050611f89565b505050565b60008151905060006a636f6e736f6c652e6c6f679050602083016000808483855afa5050505050565b505050565b6000611fd88473ffffffffffffffffffffffffffffffffffffffff166121a9565b15612141578373ffffffffffffffffffffffffffffffffffffffff1663150b7a02612001611581565b8786866040518563ffffffff1660e01b81526004016120239493929190612dbc565b602060405180830381600087803b15801561203d57600080fd5b505af192505050801561206e57506040513d601f19601f8201168201806040525081019061206b91906126ce565b60015b6120f1573d806000811461209e576040519150601f19603f3d011682016040523d82523d6000602084013e6120a3565b606091505b506000815114156120e9576040517f08c379a00000000000000000000000000000000000000000000000000000000081526004016120e090612eac565b60405180910390fd5b805181602001fd5b63150b7a0260e01b7bffffffffffffffffffffffffffffffffffffffffffffffffffffffff1916817bffffffffffffffffffffffffffffffffffffffffffffffffffffffff191614915050612146565b600190505b949350505050565b61215883836121bc565b6121656000848484611fb7565b6121a4576040517f08c379a000000000000000000000000000000000000000000000000000000000815260040161219b90612eac565b60405180910390fd5b505050565b600080823b905060008111915050919050565b600073ffffffffffffffffffffffffffffffffffffffff168273ffffffffffffffffffffffffffffffffffffffff16141561222c576040517f08c379a000000000000000000000000000000000000000000000000000000000815260040161222390612fec565b60405180910390fd5b61223581611515565b15612275576040517f08c379a000000000000000000000000000000000000000000000000000000000815260040161226c90612eec565b60405180910390fd5b61228160008383611fb2565b6001600360008473ffffffffffffffffffffffffffffffffffffffff1673ffffffffffffffffffffffffffffffffffffffff16815260200190815260200160002060008282546122d19190613195565b92505081905550816002600083815260200190815260200160002060006101000a81548173ffffffffffffffffffffffffffffffffffffffff021916908373ffffffffffffffffffffffffffffffffffffffff160217905550808273ffffffffffffffffffffffffffffffffffffffff16600073ffffffffffffffffffffffffffffffffffffffff167fddf252ad1be2c89b69c2b068fc378daa952ba7f163c4a11628f55a4df523b3ef60405160405180910390a45050565b82805461239690613360565b90600052602060002090601f0160209004810192826123b857600085556123ff565b82601f106123d157805160ff19168380011785556123ff565b828001600101855582156123ff579182015b828111156123fe5782518255916020019190600101906123e3565b5b50905061240c9190612410565b5090565b5b80821115612429576000816000905550600101612411565b5090565b600061244061243b8461310c565b6130e7565b90508281526020810184848401111561245857600080fd5b61246384828561331e565b509392505050565b60008135905061247a81613b6e565b92915050565b60008135905061248f81613b85565b92915050565b6000813590506124a481613b9c565b92915050565b6000815190506124b981613b9c565b92915050565b600082601f8301126124d057600080fd5b81356124e084826020860161242d565b91505092915050565b6000813590506124f881613bb3565b92915050565b60006020828403121561251057600080fd5b600061251e8482850161246b565b91505092915050565b6000806040838503121561253a57600080fd5b60006125488582860161246b565b92505060206125598582860161246b565b9150509250929050565b60008060006060848603121561257857600080fd5b60006125868682870161246b565b93505060206125978682870161246b565b92505060406125a8868287016124e9565b9150509250925092565b600080600080608085870312156125c857600080fd5b60006125d68782880161246b565b94505060206125e78782880161246b565b93505060406125f8878288016124e9565b925050606085013567ffffffffffffffff81111561261557600080fd5b612621878288016124bf565b91505092959194509250565b6000806040838503121561264057600080fd5b600061264e8582860161246b565b925050602061265f85828601612480565b9150509250929050565b6000806040838503121561267c57600080fd5b600061268a8582860161246b565b925050602061269b858286016124e9565b9150509250929050565b6000602082840312156126b757600080fd5b60006126c584828501612495565b91505092915050565b6000602082840312156126e057600080fd5b60006126ee848285016124aa565b91505092915050565b60006020828403121561270957600080fd5b6000612717848285016124e9565b91505092915050565b612729816132aa565b82525050565b612738816132bc565b82525050565b600061274982613152565b6127538185613168565b935061276381856020860161332d565b61276c816134f9565b840191505092915050565b60006127828261315d565b61278c8185613179565b935061279c81856020860161332d565b6127a5816134f9565b840191505092915050565b60006127bb8261315d565b6127c5818561318a565b93506127d581856020860161332d565b80840191505092915050565b600081546127ee81613360565b6127f8818661318a565b94506001821660008114612813576001811461282457612857565b60ff19831686528186019350612857565b61282d8561313d565b60005b8381101561284f57815481890152600182019150602081019050612830565b838801955050505b50505092915050565b600061286d603283613179565b91506128788261350a565b604082019050919050565b600061289060528361318a565b915061289b82613559565b605282019050919050565b60006128b3601883613179565b91506128be826135ce565b602082019050919050565b60006128d6601c83613179565b91506128e1826135f7565b602082019050919050565b60006128f9600a8361318a565b915061290482613620565b600a82019050919050565b600061291c602483613179565b915061292782613649565b604082019050919050565b600061293f601983613179565b915061294a82613698565b602082019050919050565b6000612962600b8361318a565b915061296d826136c1565b600b82019050919050565b6000612985602c83613179565b9150612990826136ea565b604082019050919050565b60006129a8600d8361318a565b91506129b382613739565b600d82019050919050565b60006129cb603883613179565b91506129d682613762565b604082019050919050565b60006129ee602a83613179565b91506129f9826137b1565b604082019050919050565b6000612a11602983613179565b9150612a1c82613800565b604082019050919050565b6000612a34602e83613179565b9150612a3f8261384f565b604082019050919050565b6000612a5760028361318a565b9150612a628261389e565b600282019050919050565b6000612a7a602083613179565b9150612a85826138c7565b602082019050919050565b6000612a9d603183613179565b9150612aa8826138f0565b604082019050919050565b6000612ac0602c83613179565b9150612acb8261393f565b604082019050919050565b6000612ae3602983613179565b9150612aee8261398e565b604082019050919050565b6000612b06602f83613179565b9150612b11826139dd565b604082019050919050565b6000612b29600a8361318a565b9150612b3482613a2c565b600a82019050919050565b6000612b4c602183613179565b9150612b5782613a55565b604082019050919050565b6000612b6f600a8361318a565b9150612b7a82613aa4565b600a82019050919050565b6000612b92601d8361318a565b9150612b9d82613acd565b601d82019050919050565b6000612bb5603183613179565b9150612bc082613af6565b604082019050919050565b6000612bd860058361318a565b9150612be382613b45565b600582019050919050565b612bf781613314565b82525050565b6000612c0982846127b0565b915081905092915050565b6000612c2082856127b0565b9150612c2c82846127b0565b91508190509392505050565b6000612c4482866127b0565b9150612c5082856127b0565b9150612c5c82846127b0565b9150819050949350505050565b6000612c7582876127e1565b9150612c8182866127b0565b9150612c8d82856127e1565b9150612c9982846127b0565b9150612ca48261299b565b915081905095945050505050565b6000612cbd826128ec565b9150612cc982846127b0565b915081905092915050565b6000612cdf82612955565b9150612ceb82846127b0565b915081905092915050565b6000612d0182612b1c565b9150612d0d82856127b0565b9150612d1882612883565b9150612d2482846127b0565b9150612d2f82612a4a565b91508190509392505050565b6000612d4682612b62565b9150612d5282846127b0565b915081905092915050565b6000612d6882612b85565b9150612d7482846127b0565b915081905092915050565b6000612d8a82612bcb565b9150612d9682846127b0565b915081905092915050565b6000602082019050612db66000830184612720565b92915050565b6000608082019050612dd16000830187612720565b612dde6020830186612720565b612deb6040830185612bee565b8181036060830152612dfd818461273e565b905095945050505050565b6000604082019050612e1d6000830185612720565b612e2a6020830184612bee565b9392505050565b6000602082019050612e46600083018461272f565b92915050565b60006020820190508181036000830152612e668184612777565b905092915050565b60006060820190508181036000830152612e888186612777565b9050612e976020830185612bee565b612ea46040830184612720565b949350505050565b60006020820190508181036000830152612ec581612860565b9050919050565b60006020820190508181036000830152612ee5816128a6565b9050919050565b60006020820190508181036000830152612f05816128c9565b9050919050565b60006020820190508181036000830152612f258161290f565b9050919050565b60006020820190508181036000830152612f4581612932565b9050919050565b60006020820190508181036000830152612f6581612978565b9050919050565b60006020820190508181036000830152612f85816129be565b9050919050565b60006020820190508181036000830152612fa5816129e1565b9050919050565b60006020820190508181036000830152612fc581612a04565b9050919050565b60006020820190508181036000830152612fe581612a27565b9050919050565b6000602082019050818103600083015261300581612a6d565b9050919050565b6000602082019050818103600083015261302581612a90565b9050919050565b6000602082019050818103600083015261304581612ab3565b9050919050565b6000602082019050818103600083015261306581612ad6565b9050919050565b6000602082019050818103600083015261308581612af9565b9050919050565b600060208201905081810360008301526130a581612b3f565b9050919050565b600060208201905081810360008301526130c581612ba8565b9050919050565b60006020820190506130e16000830184612bee565b92915050565b60006130f1613102565b90506130fd8282613392565b919050565b6000604051905090565b600067ffffffffffffffff821115613127576131266134ca565b5b613130826134f9565b9050602081019050919050565b60008190508160005260206000209050919050565b600081519050919050565b600081519050919050565b600082825260208201905092915050565b600082825260208201905092915050565b600081905092915050565b60006131a082613314565b91506131ab83613314565b9250827fffffffffffffffffffffffffffffffffffffffffffffffffffffffffffffffff038211156131e0576131df61343d565b5b828201905092915050565b60006131f682613314565b915061320183613314565b9250826132115761321061346c565b5b828204905092915050565b600061322782613314565b915061323283613314565b9250817fffffffffffffffffffffffffffffffffffffffffffffffffffffffffffffffff048311821515161561326b5761326a61343d565b5b828202905092915050565b600061328182613314565b915061328c83613314565b92508282101561329f5761329e61343d565b5b828203905092915050565b60006132b5826132f4565b9050919050565b60008115159050919050565b60007fffffffff0000000000000000000000000000000000000000000000000000000082169050919050565b600073ffffffffffffffffffffffffffffffffffffffff82169050919050565b6000819050919050565b82818337600083830152505050565b60005b8381101561334b578082015181840152602081019050613330565b8381111561335a576000848401525b50505050565b6000600282049050600182168061337857607f821691505b6020821081141561338c5761338b61349b565b5b50919050565b61339b826134f9565b810181811067ffffffffffffffff821117156133ba576133b96134ca565b5b80604052505050565b60006133ce82613314565b91507fffffffffffffffffffffffffffffffffffffffffffffffffffffffffffffffff8214156134015761340061343d565b5b600182019050919050565b600061341782613314565b915061342283613314565b9250826134325761343161346c565b5b828206905092915050565b7f4e487b7100000000000000000000000000000000000000000000000000000000600052601160045260246000fd5b7f4e487b7100000000000000000000000000000000000000000000000000000000600052601260045260246000fd5b7f4e487b7100000000000000000000000000000000000000000000000000000000600052602260045260246000fd5b7f4e487b7100000000000000000000000000000000000000000000000000000000600052604160045260246000fd5b6000601f19601f8301169050919050565b7f4552433732313a207472616e7366657220746f206e6f6e20455243373231526560008201527f63656976657220696d706c656d656e7465720000000000000000000000000000602082015250565b7f222c20226465736372697074696f6e223a2022416e204570696320776f72642060008201527f636f6d62696e61746f722e222c2022696d616765223a2022646174613a696d6160208201527f67652f7376672b786d6c3b6261736536342c0000000000000000000000000000604082015250565b7f416c6c204e46547320686173206265656e206d696e7465640000000000000000600082015250565b7f4552433732313a20746f6b656e20616c7265616479206d696e74656400000000600082015250565b7f54484952445f574f524400000000000000000000000000000000000000000000600082015250565b7f4552433732313a207472616e7366657220746f20746865207a65726f2061646460008201527f7265737300000000000000000000000000000000000000000000000000000000602082015250565b7f4552433732313a20617070726f766520746f2063616c6c657200000000000000600082015250565b7f5345434f4e445f574f5244000000000000000000000000000000000000000000600082015250565b7f4552433732313a206f70657261746f7220717565727920666f72206e6f6e657860008201527f697374656e7420746f6b656e0000000000000000000000000000000000000000602082015250565b7f3c2f746578743e3c2f7376673e00000000000000000000000000000000000000600082015250565b7f4552433732313a20617070726f76652063616c6c6572206973206e6f74206f7760008201527f6e6572206e6f7220617070726f76656420666f7220616c6c0000000000000000602082015250565b7f4552433732313a2062616c616e636520717565727920666f7220746865207a6560008201527f726f206164647265737300000000000000000000000000000000000000000000602082015250565b7f4552433732313a206f776e657220717565727920666f72206e6f6e657869737460008201527f656e7420746f6b656e0000000000000000000000000000000000000000000000602082015250565b7f45524337323155524953746f726167653a2055524920736574206f66206e6f6e60008201527f6578697374656e7420746f6b656e000000000000000000000000000000000000602082015250565b7f227d000000000000000000000000000000000000000000000000000000000000600082015250565b7f4552433732313a206d696e7420746f20746865207a65726f2061646472657373600082015250565b7f45524337323155524953746f726167653a2055524920717565727920666f722060008201527f6e6f6e6578697374656e7420746f6b656e000000000000000000000000000000602082015250565b7f4552433732313a20617070726f76656420717565727920666f72206e6f6e657860008201527f697374656e7420746f6b656e0000000000000000000000000000000000000000602082015250565b7f4552433732313a207472616e73666572206f6620746f6b656e2074686174206960008201527f73206e6f74206f776e0000000000000000000000000000000000000000000000602082015250565b7f4552433732314d657461646174613a2055524920717565727920666f72206e6f60008201527f6e6578697374656e7420746f6b656e0000000000000000000000000000000000602082015250565b7f7b226e616d65223a202200000000000000000000000000000000000000000000600082015250565b7f4552433732313a20617070726f76616c20746f2063757272656e74206f776e6560008201527f7200000000000000000000000000000000000000000000000000000000000000602082015250565b7f46495253545f574f524400000000000000000000000000000000000000000000600082015250565b7f646174613a6170706c69636174696f6e2f6a736f6e3b6261736536342c000000600082015250565b7f4552433732313a207472616e736665722063616c6c6572206973206e6f74206f60008201527f776e6572206e6f7220617070726f766564000000000000000000000000000000602082015250565b7f434f4c4f52000000000000000000000000000000000000000000000000000000600082015250565b613b77816132aa565b8114613b8257600080fd5b50565b613b8e816132bc565b8114613b9957600080fd5b50565b613ba5816132c8565b8114613bb057600080fd5b50565b613bbc81613314565b8114613bc757600080fd5b5056fe416e204e465420772f20494420257320686173206265656e206d696e74656420746f2025734142434445464748494a4b4c4d4e4f505152535455565758595a6162636465666768696a6b6c6d6e6f707172737475767778797a303132333435363738392b2fa26469706673582212200d0113d27256d31fccaf0151e3e9741eb68f5f6b13bf5f479423307e8025307564736f6c634300080400333c73766720786d6c6e733d27687474703a2f2f7777772e77332e6f72672f323030302f73766727207072657365727665417370656374526174696f3d27784d696e594d696e206d656574272076696577426f783d273020302033353020333530273e3c7374796c653e2e62617365207b2066696c6c3a2077686974653b20666f6e742d66616d696c793a2073657269663b20666f6e742d73697a653a20323470783b207d3c2f7374796c653e3c726563742077696474683d273130302527206865696768743d2731303025272066696c6c3d27626c61636b27202f3e3c7465787420783d273530252720793d273530252720636c6173733d27626173652720646f6d696e616e742d626173656c696e653d276d6964646c652720746578742d616e63686f723d276d6964646c65273e3c73766720786d6c6e733d27687474703a2f2f7777772e77332e6f72672f323030302f73766727207072657365727665417370656374526174696f3d27784d696e594d696e206d656574272076696577426f783d273020302033353020333530273e3c7374796c653e2e62617365207b2066696c6c3a2077686974653b20666f6e742d66616d696c793a2073657269663b20666f6e742d73697a653a20323470783b207d3c2f7374796c653e3c726563742077696474683d273130302527206865696768743d2731303025272066696c6c3d27272f3e3c7465787420783d273530252720793d273530252720636c6173733d27626173652720646f6d696e616e742d626173656c696e653d276d6964646c652720746578742d616e63686f723d276d6964646c65273e",
  "linkReferences": {},
  "deployedLinkReferences": {}
}