{
  "_format": "hh-sol-artifact-1",
  "contractName": "MyNFT",
  "sourceName": "contracts/MyNFT.sol",
  "abi": [
    {
      "inputs": [],
      "stateMutability": "nonpayable",
      "type": "constructor"
    },
    {
      "anonymous": false,
      "inputs": [
        {
          "indexed": true,
          "internalType": "address",
          "name": "owner",
          "type": "address"
        },
        {
          "indexed": true,
          "internalType": "address",
          "name": "approved",
          "type": "address"
        },
        {
          "indexed": true,
          "internalType": "uint256",
          "name": "tokenId",
          "type": "uint256"
        }
      ],
      "name": "Approval",
      "type": "event"
    },
    {
      "anonymous": false,
      "inputs": [
        {
          "indexed": true,
          "internalType": "address",
          "name": "owner",
          "type": "address"
        },
        {
          "indexed": true,
          "internalType": "address",
          "name": "operator",
          "type": "address"
        },
        {
          "indexed": false,
          "internalType": "bool",
          "name": "approved",
          "type": "bool"
        }
      ],
      "name": "ApprovalForAll",
      "type": "event"
    },
    {
      "anonymous": false,
      "inputs": [
        {
          "indexed": false,
          "internalType": "address",
          "name": "sender",
          "type": "address"
        },
        {
          "indexed": false,
          "internalType": "uint256",
          "name": "tokenId",
          "type": "uint256"
        }
      ],
      "name": "NewEpicNFTMinted",
      "type": "event"
    },
    {
      "anonymous": false,
      "inputs": [
        {
          "indexed": true,
          "internalType": "address",
          "name": "from",
          "type": "address"
        },
        {
          "indexed": true,
          "internalType": "address",
          "name": "to",
          "type": "address"
        },
        {
          "indexed": true,
          "internalType": "uint256",
          "name": "tokenId",
          "type": "uint256"
        }
      ],
      "name": "Transfer",
      "type": "event"
    },
    {
      "inputs": [
        {
          "internalType": "address",
          "name": "to",
          "type": "address"
        },
        {
          "internalType": "uint256",
          "name": "tokenId",
          "type": "uint256"
        }
      ],
      "name": "approve",
      "outputs": [],
      "stateMutability": "nonpayable",
      "type": "function"
    },
    {
      "inputs": [
        {
          "internalType": "address",
          "name": "owner",
          "type": "address"
        }
      ],
      "name": "balanceOf",
      "outputs": [
        {
          "internalType": "uint256",
          "name": "",
          "type": "uint256"
        }
      ],
      "stateMutability": "view",
      "type": "function"
    },
    {
      "inputs": [
        {
          "internalType": "uint256",
          "name": "tokenId",
          "type": "uint256"
        }
      ],
      "name": "getApproved",
      "outputs": [
        {
          "internalType": "address",
          "name": "",
          "type": "address"
        }
      ],
      "stateMutability": "view",
      "type": "function"
    },
    {
      "inputs": [],
      "name": "getTotalMintCount",
      "outputs": [
        {
          "internalType": "uint256",
          "name": "",
          "type": "uint256"
        }
      ],
      "stateMutability": "view",
      "type": "function"
    },
    {
      "inputs": [
        {
          "internalType": "address",
          "name": "owner",
          "type": "address"
        },
        {
          "internalType": "address",
          "name": "operator",
          "type": "address"
        }
      ],
      "name": "isApprovedForAll",
      "outputs": [
        {
          "internalType": "bool",
          "name": "",
          "type": "bool"
        }
      ],
      "stateMutability": "view",
      "type": "function"
    },
    {
      "inputs": [],
      "name": "makeAnNFT",
      "outputs": [],
      "stateMutability": "nonpayable",
      "type": "function"
    },
    {
      "inputs": [
        {
          "internalType": "string",
          "name": "tokenCID",
          "type": "string"
        }
      ],
      "name": "mintNFT",
      "outputs": [],
      "stateMutability": "nonpayable",
      "type": "function"
    },
    {
      "inputs": [],
      "name": "name",
      "outputs": [
        {
          "internalType": "string",
          "name": "",
          "type": "string"
        }
      ],
      "stateMutability": "view",
      "type": "function"
    },
    {
      "inputs": [
        {
          "internalType": "uint256",
          "name": "tokenId",
          "type": "uint256"
        }
      ],
      "name": "ownerOf",
      "outputs": [
        {
          "internalType": "address",
          "name": "",
          "type": "address"
        }
      ],
      "stateMutability": "view",
      "type": "function"
    },
    {
      "inputs": [
        {
          "internalType": "uint256",
          "name": "tokenId",
          "type": "uint256"
        }
      ],
      "name": "pickRandomColor",
      "outputs": [
        {
          "internalType": "string",
          "name": "",
          "type": "string"
        }
      ],
      "stateMutability": "view",
      "type": "function"
    },
    {
      "inputs": [
        {
          "internalType": "uint256",
          "name": "tokenId",
          "type": "uint256"
        }
      ],
      "name": "pickRandomFirstWord",
      "outputs": [
        {
          "internalType": "string",
          "name": "",
          "type": "string"
        }
      ],
      "stateMutability": "view",
      "type": "function"
    },
    {
      "inputs": [
        {
          "internalType": "uint256",
          "name": "tokenId",
          "type": "uint256"
        }
      ],
      "name": "pickRandomSecondWord",
      "outputs": [
        {
          "internalType": "string",
          "name": "",
          "type": "string"
        }
      ],
      "stateMutability": "view",
      "type": "function"
    },
    {
      "inputs": [
        {
          "internalType": "uint256",
          "name": "tokenId",
          "type": "uint256"
        }
      ],
      "name": "pickRandomThirdWord",
      "outputs": [
        {
          "internalType": "string",
          "name": "",
          "type": "string"
        }
      ],
      "stateMutability": "view",
      "type": "function"
    },
    {
      "inputs": [
        {
          "internalType": "address",
          "name": "from",
          "type": "address"
        },
        {
          "internalType": "address",
          "name": "to",
          "type": "address"
        },
        {
          "internalType": "uint256",
          "name": "tokenId",
          "type": "uint256"
        }
      ],
      "name": "safeTransferFrom",
      "outputs": [],
      "stateMutability": "nonpayable",
      "type": "function"
    },
    {
      "inputs": [
        {
          "internalType": "address",
          "name": "from",
          "type": "address"
        },
        {
          "internalType": "address",
          "name": "to",
          "type": "address"
        },
        {
          "internalType": "uint256",
          "name": "tokenId",
          "type": "uint256"
        },
        {
          "internalType": "bytes",
          "name": "_data",
          "type": "bytes"
        }
      ],
      "name": "safeTransferFrom",
      "outputs": [],
      "stateMutability": "nonpayable",
      "type": "function"
    },
    {
      "inputs": [
        {
          "internalType": "address",
          "name": "operator",
          "type": "address"
        },
        {
          "internalType": "bool",
          "name": "approved",
          "type": "bool"
        }
      ],
      "name": "setApprovalForAll",
      "outputs": [],
      "stateMutability": "nonpayable",
      "type": "function"
    },
    {
      "inputs": [
        {
          "internalType": "bytes4",
          "name": "interfaceId",
          "type": "bytes4"
        }
      ],
      "name": "supportsInterface",
      "outputs": [
        {
          "internalType": "bool",
          "name": "",
          "type": "bool"
        }
      ],
      "stateMutability": "view",
      "type": "function"
    },
    {
      "inputs": [],
      "name": "symbol",
      "outputs": [
        {
          "internalType": "string",
          "name": "",
          "type": "string"
        }
      ],
      "stateMutability": "view",
      "type": "function"
    },
    {
      "inputs": [
        {
          "internalType": "uint256",
          "name": "tokenId",
          "type": "uint256"
        }
      ],
      "name": "tokenURI",
      "outputs": [
        {
          "internalType": "string",
          "name": "",
          "type": "string"
        }
      ],
      "stateMutability": "view",
      "type": "function"
    },
    {
      "inputs": [
        {
          "internalType": "address",
          "name": "from",
          "type": "address"
        },
        {
          "internalType": "address",
          "name": "to",
          "type": "address"
        },
        {
          "internalType": "uint256",
          "name": "tokenId",
          "type": "uint256"
        }
      ],
      "name": "transferFrom",
      "outputs": [],
      "stateMutability": "nonpayable",
      "type": "function"
    }
  ],
  "bytecode": "0x608060405260405180610160016040528061012f8152602001620047f961012f9139600890805190602001906200003892919062000861565b5060405180610100016040528060d381526020016200492860d39139600990805190602001906200006b92919062000861565b50604051806080016040528060568152602001620049fb60569139600a90805190602001906200009d92919062000861565b506040518060c001604052806040518060400160405280600a81526020017f41434345505441424c450000000000000000000000000000000000000000000081525081526020016040518060400160405280600881526020017f504c454153494e4700000000000000000000000000000000000000000000000081525081526020016040518060400160405280600a81526020017f47524154494659494e470000000000000000000000000000000000000000000081525081526020016040518060400160405280600a81526020017f53415449534659494e470000000000000000000000000000000000000000000081525081526020016040518060400160405280600681526020017f535547415259000000000000000000000000000000000000000000000000000081525081526020016040518060400160405280600781526020017f484f4e4559454400000000000000000000000000000000000000000000000000815250815250600b9060066200021b929190620008f2565b506040518060c001604052806040518060400160405280600881526020017f4153544f4e49534800000000000000000000000000000000000000000000000081525081526020016040518060400160405280600781526020017f424146464c45530000000000000000000000000000000000000000000000000081525081526020016040518060400160405280600a81526020017f424557494c44455245440000000000000000000000000000000000000000000081525081526020016040518060400160405280600681526020017f414d415a4544000000000000000000000000000000000000000000000000000081525081526020016040518060400160405280600781526020017f5354554e4e45440000000000000000000000000000000000000000000000000081525081526020016040518060400160405280600781526020017f5354414747455200000000000000000000000000000000000000000000000000815250815250600c90600662000399929190620008f2565b506040518060c001604052806040518060400160405280600a81526020017f415454524143544956450000000000000000000000000000000000000000000081525081526020016040518060400160405280600681526020017f505245545459000000000000000000000000000000000000000000000000000081525081526020016040518060400160405280600881526020017f414c4c5552494e4700000000000000000000000000000000000000000000000081525081526020016040518060400160405280600881526020017f434841524d494e4700000000000000000000000000000000000000000000000081525081526020016040518060400160405280600781526020017f57494e534f4d450000000000000000000000000000000000000000000000000081525081526020016040518060400160405280600781526020017f454c4547414e5400000000000000000000000000000000000000000000000000815250815250600d90600662000517929190620008f2565b506040518060c001604052806040518060400160405280600381526020017f726564000000000000000000000000000000000000000000000000000000000081525081526020016040518060400160405280600781526020017f233038433241380000000000000000000000000000000000000000000000000081525081526020016040518060400160405280600581526020017f626c61636b00000000000000000000000000000000000000000000000000000081525081526020016040518060400160405280600681526020017f79656c6c6f77000000000000000000000000000000000000000000000000000081525081526020016040518060400160405280600481526020017f626c75650000000000000000000000000000000000000000000000000000000081525081526020016040518060400160405280600581526020017f677265656e000000000000000000000000000000000000000000000000000000815250815250600e90600662000695929190620008f2565b50348015620006a357600080fd5b506040518060400160405280600781526020017f4a6f686e4e4654000000000000000000000000000000000000000000000000008152506040518060400160405280600a81526020017f4a6f686e496e576562330000000000000000000000000000000000000000000081525081600090805190602001906200072892919062000861565b5080600190805190602001906200074192919062000861565b5050506200078f6040518060400160405280601e81526020017f54686973206973206d79204e465420636f6e74726163742e20576f61682100008152506200079560201b620015081760201c565b62000b13565b6200083581604051602401620007ac919062000a27565b6040516020818303038152906040527f41304fac000000000000000000000000000000000000000000000000000000007bffffffffffffffffffffffffffffffffffffffffffffffffffffffff19166020820180517bffffffffffffffffffffffffffffffffffffffffffffffffffffffff83818316178352505050506200083860201b60201c565b50565b60008151905060006a636f6e736f6c652e6c6f679050602083016000808483855afa5050505050565b8280546200086f9062000a9d565b90600052602060002090601f016020900481019282620008935760008555620008df565b82601f10620008ae57805160ff1916838001178555620008df565b82800160010185558215620008df579182015b82811115620008de578251825591602001919060010190620008c1565b5b509050620008ee919062000959565b5090565b82805482825590600052602060002090810192821562000946579160200282015b82811115620009455782518290805190602001906200093492919062000861565b509160200191906001019062000913565b5b50905062000955919062000978565b5090565b5b80821115620009745760008160009055506001016200095a565b5090565b5b808211156200099c5760008181620009929190620009a0565b5060010162000979565b5090565b508054620009ae9062000a9d565b6000825580601f10620009c25750620009e3565b601f016020900490600052602060002090810190620009e2919062000959565b5b50565b6000620009f38262000a4b565b620009ff818562000a56565b935062000a1181856020860162000a67565b62000a1c8162000b02565b840191505092915050565b6000602082019050818103600083015262000a438184620009e6565b905092915050565b600081519050919050565b600082825260208201905092915050565b60005b8381101562000a8757808201518184015260208101905062000a6a565b8381111562000a97576000848401525b50505050565b6000600282049050600182168062000ab657607f821691505b6020821081141562000acd5762000acc62000ad3565b5b50919050565b7f4e487b7100000000000000000000000000000000000000000000000000000000600052602260045260246000fd5b6000601f19601f8301169050919050565b613cd68062000b236000396000f3fe608060405234801561001057600080fd5b506004361061012c5760003560e01c806395d89b41116100ad578063c575757a11610071578063c575757a14610367578063c87b56dd14610397578063e4d098e1146103c7578063e985e9c5146103d1578063fb37e883146104015761012c565b806395d89b41146102c35780639b8ab691146102e1578063a22cb465146102ff578063b187301f1461031b578063b88d4fde1461034b5761012c565b80632de38d68116100f45780632de38d68146101e757806342842e0e14610217578063514dc8c6146102335780636352211e1461026357806370a08231146102935761012c565b806301ffc9a71461013157806306fdde0314610161578063081812fc1461017f578063095ea7b3146101af57806323b872dd146101cb575b600080fd5b61014b60048036038101906101469190612803565b61041d565b60405161015891906134fc565b60405180910390f35b6101696104ff565b6040516101769190613517565b60405180910390f35b61019960048036038101906101949190612896565b610591565b6040516101a6919061346c565b60405180910390f35b6101c960048036038101906101c491906127c7565b610616565b005b6101e560048036038101906101e091906126c1565b61072e565b005b61020160048036038101906101fc9190612896565b61078e565b60405161020e9190613517565b60405180910390f35b610231600480360381019061022c91906126c1565b6108ac565b005b61024d60048036038101906102489190612896565b6108cc565b60405161025a9190613517565b60405180910390f35b61027d60048036038101906102789190612896565b6109ea565b60405161028a919061346c565b60405180910390f35b6102ad60048036038101906102a8919061265c565b610a9c565b6040516102ba9190613797565b60405180910390f35b6102cb610b54565b6040516102d89190613517565b60405180910390f35b6102e9610be6565b6040516102f69190613797565b60405180910390f35b6103196004803603810190610314919061278b565b610bf7565b005b61033560048036038101906103309190612896565b610d78565b6040516103429190613517565b60405180910390f35b61036560048036038101906103609190612710565b610e96565b005b610381600480360381019061037c9190612896565b610ef8565b60405161038e9190613517565b60405180910390f35b6103b160048036038101906103ac9190612896565b611016565b6040516103be9190613517565b60405180910390f35b6103cf611168565b005b6103eb60048036038101906103e69190612685565b6113a5565b6040516103f891906134fc565b60405180910390f35b61041b60048036038101906104169190612855565b611439565b005b60007f80ac58cd000000000000000000000000000000000000000000000000000000007bffffffffffffffffffffffffffffffffffffffffffffffffffffffff1916827bffffffffffffffffffffffffffffffffffffffffffffffffffffffff191614806104e857507f5b5e139f000000000000000000000000000000000000000000000000000000007bffffffffffffffffffffffffffffffffffffffffffffffffffffffff1916827bffffffffffffffffffffffffffffffffffffffffffffffffffffffff1916145b806104f857506104f7826115a1565b5b9050919050565b60606000805461050e90613a66565b80601f016020809104026020016040519081016040528092919081815260200182805461053a90613a66565b80156105875780601f1061055c57610100808354040283529160200191610587565b820191906000526020600020905b81548152906001019060200180831161056a57829003601f168201915b5050505050905090565b600061059c8261160b565b6105db576040517f08c379a00000000000000000000000000000000000000000000000000000000081526004016105d2906136f7565b60405180910390fd5b6004600083815260200190815260200160002060009054906101000a900473ffffffffffffffffffffffffffffffffffffffff169050919050565b6000610621826109ea565b90508073ffffffffffffffffffffffffffffffffffffffff168373ffffffffffffffffffffffffffffffffffffffff161415610692576040517f08c379a000000000000000000000000000000000000000000000000000000000815260040161068990613757565b60405180910390fd5b8073ffffffffffffffffffffffffffffffffffffffff166106b1611677565b73ffffffffffffffffffffffffffffffffffffffff1614806106e057506106df816106da611677565b6113a5565b5b61071f576040517f08c379a000000000000000000000000000000000000000000000000000000000815260040161071690613637565b60405180910390fd5b610729838361167f565b505050565b61073f610739611677565b82611738565b61077e576040517f08c379a000000000000000000000000000000000000000000000000000000000815260040161077590613777565b60405180910390fd5b610789838383611816565b505050565b606060006107c261079e84611a72565b6040516020016107ae9190613406565b604051602081830303815290604052611c1f565b9050600b80549050816107d59190613ae1565b9050600b8181548110610811577f4e487b7100000000000000000000000000000000000000000000000000000000600052603260045260246000fd5b90600052602060002001805461082690613a66565b80601f016020809104026020016040519081016040528092919081815260200182805461085290613a66565b801561089f5780601f106108745761010080835404028352916020019161089f565b820191906000526020600020905b81548152906001019060200180831161088257829003601f168201915b5050505050915050919050565b6108c783838360405180602001604052806000815250610e96565b505050565b606060006109006108dc84611a72565b6040516020016108ec919061344a565b604051602081830303815290604052611c1f565b9050600e80549050816109139190613ae1565b9050600e818154811061094f577f4e487b7100000000000000000000000000000000000000000000000000000000600052603260045260246000fd5b90600052602060002001805461096490613a66565b80601f016020809104026020016040519081016040528092919081815260200182805461099090613a66565b80156109dd5780601f106109b2576101008083540402835291602001916109dd565b820191906000526020600020905b8154815290600101906020018083116109c057829003601f168201915b5050505050915050919050565b6000806002600084815260200190815260200160002060009054906101000a900473ffffffffffffffffffffffffffffffffffffffff169050600073ffffffffffffffffffffffffffffffffffffffff168173ffffffffffffffffffffffffffffffffffffffff161415610a93576040517f08c379a0000000000000000000000000000000000000000000000000000000008152600401610a8a90613677565b60405180910390fd5b80915050919050565b60008073ffffffffffffffffffffffffffffffffffffffff168273ffffffffffffffffffffffffffffffffffffffff161415610b0d576040517f08c379a0000000000000000000000000000000000000000000000000000000008152600401610b0490613657565b60405180910390fd5b600360008373ffffffffffffffffffffffffffffffffffffffff1673ffffffffffffffffffffffffffffffffffffffff168152602001908152602001600020549050919050565b606060018054610b6390613a66565b80601f0160208091040260200160405190810160405280929190818152602001828054610b8f90613a66565b8015610bdc5780601f10610bb157610100808354040283529160200191610bdc565b820191906000526020600020905b815481529060010190602001808311610bbf57829003601f168201915b5050505050905090565b6000610bf26007611c52565b905090565b610bff611677565b73ffffffffffffffffffffffffffffffffffffffff168273ffffffffffffffffffffffffffffffffffffffff161415610c6d576040517f08c379a0000000000000000000000000000000000000000000000000000000008152600401610c64906135f7565b60405180910390fd5b8060056000610c7a611677565b73ffffffffffffffffffffffffffffffffffffffff1673ffffffffffffffffffffffffffffffffffffffff16815260200190815260200160002060008473ffffffffffffffffffffffffffffffffffffffff1673ffffffffffffffffffffffffffffffffffffffff16815260200190815260200160002060006101000a81548160ff0219169083151502179055508173ffffffffffffffffffffffffffffffffffffffff16610d27611677565b73ffffffffffffffffffffffffffffffffffffffff167f17307eab39ab6107e8899845ad3d59bd9653f200f220920489ca2b5937696c3183604051610d6c91906134fc565b60405180910390a35050565b60606000610dac610d8884611a72565b604051602001610d98919061339f565b604051602081830303815290604052611c1f565b9050600c8054905081610dbf9190613ae1565b9050600c8181548110610dfb577f4e487b7100000000000000000000000000000000000000000000000000000000600052603260045260246000fd5b906000526020600020018054610e1090613a66565b80601f0160208091040260200160405190810160405280929190818152602001828054610e3c90613a66565b8015610e895780601f10610e5e57610100808354040283529160200191610e89565b820191906000526020600020905b815481529060010190602001808311610e6c57829003601f168201915b5050505050915050919050565b610ea7610ea1611677565b83611738565b610ee6576040517f08c379a0000000000000000000000000000000000000000000000000000000008152600401610edd90613777565b60405180910390fd5b610ef284848484611c60565b50505050565b60606000610f2c610f0884611a72565b604051602001610f18919061337d565b604051602081830303815290604052611c1f565b9050600d8054905081610f3f9190613ae1565b9050600d8181548110610f7b577f4e487b7100000000000000000000000000000000000000000000000000000000600052603260045260246000fd5b906000526020600020018054610f9090613a66565b80601f0160208091040260200160405190810160405280929190818152602001828054610fbc90613a66565b80156110095780601f10610fde57610100808354040283529160200191611009565b820191906000526020600020905b815481529060010190602001808311610fec57829003601f168201915b5050505050915050919050565b60606110218261160b565b611060576040517f08c379a0000000000000000000000000000000000000000000000000000000008152600401611057906136d7565b60405180910390fd5b600060066000848152602001908152602001600020805461108090613a66565b80601f01602080910402602001604051908101604052809291908181526020018280546110ac90613a66565b80156110f95780601f106110ce576101008083540402835291602001916110f9565b820191906000526020600020905b8154815290600101906020018083116110dc57829003601f168201915b50505050509050600061110a611cbc565b9050600081511415611120578192505050611163565b60008251111561115557808260405160200161113d9291906132df565b60405160208183030381529060405292505050611163565b61115e84611cd3565b925050505b919050565b60006111746007611c52565b9050603281106111b9576040517f08c379a00000000000000000000000000000000000000000000000000000000081526004016111b090613597565b60405180910390fd5b60006111c48261078e565b905060006111d183610d78565b905060006111de84610ef8565b905060008383836040516020016111f793929190613303565b60405160208183030381529060405290506000611213866108cc565b90506000600982600a856040516020016112309493929190613334565b604051602081830303815290604052905060006112758461125084611d7a565b6040516020016112619291906133c1565b604051602081830303815290604052611d7a565b905060008160405160200161128a9190613428565b60405160208183030381529060405290506112d96040518060400160405280601581526020017f0a2d2d2d2d2d2d2d2d2d2d2d2d2d2d2d2d2d2d2d2d0000000000000000000000815250611508565b6112e281611508565b6113206040518060400160405280601581526020017f2d2d2d2d2d2d2d2d2d2d2d2d2d2d2d2d2d2d2d2d0a0000000000000000000000815250611508565b61132a338a611f38565b6113348982611f56565b61133e6007611fca565b611361604051806060016040528060258152602001613c3c602591398a33611fe0565b7febb98688741ffa4c7589bf325de30cf7becb63de567842e1ccdb6cb949fdc82c338a6040516113929291906134d3565b60405180910390a1505050505050505050565b6000600560008473ffffffffffffffffffffffffffffffffffffffff1673ffffffffffffffffffffffffffffffffffffffff16815260200190815260200160002060008373ffffffffffffffffffffffffffffffffffffffff1673ffffffffffffffffffffffffffffffffffffffff16815260200190815260200160002060009054906101000a900460ff16905092915050565b60006114456007611c52565b90506032811061148a576040517f08c379a000000000000000000000000000000000000000000000000000000000815260040161148190613597565b60405180910390fd5b6114943382611f38565b61149e8183611f56565b6114a86007611fca565b6114cb604051806060016040528060258152602001613c3c602591398233611fe0565b7febb98688741ffa4c7589bf325de30cf7becb63de567842e1ccdb6cb949fdc82c33826040516114fc9291906134d3565b60405180910390a15050565b61159e8160405160240161151c9190613517565b6040516020818303038152906040527f41304fac000000000000000000000000000000000000000000000000000000007bffffffffffffffffffffffffffffffffffffffffffffffffffffffff19166020820180517bffffffffffffffffffffffffffffffffffffffffffffffffffffffff838183161783525050505061207f565b50565b60007f01ffc9a7000000000000000000000000000000000000000000000000000000007bffffffffffffffffffffffffffffffffffffffffffffffffffffffff1916827bffffffffffffffffffffffffffffffffffffffffffffffffffffffff1916149050919050565b60008073ffffffffffffffffffffffffffffffffffffffff166002600084815260200190815260200160002060009054906101000a900473ffffffffffffffffffffffffffffffffffffffff1673ffffffffffffffffffffffffffffffffffffffff1614159050919050565b600033905090565b816004600083815260200190815260200160002060006101000a81548173ffffffffffffffffffffffffffffffffffffffff021916908373ffffffffffffffffffffffffffffffffffffffff160217905550808273ffffffffffffffffffffffffffffffffffffffff166116f2836109ea565b73ffffffffffffffffffffffffffffffffffffffff167f8c5be1e5ebec7d5bd14f71427d1e84f3dd0314c0f7b2291e5b200ac8c7c3b92560405160405180910390a45050565b60006117438261160b565b611782576040517f08c379a000000000000000000000000000000000000000000000000000000000815260040161177990613617565b60405180910390fd5b600061178d836109ea565b90508073ffffffffffffffffffffffffffffffffffffffff168473ffffffffffffffffffffffffffffffffffffffff1614806117fc57508373ffffffffffffffffffffffffffffffffffffffff166117e484610591565b73ffffffffffffffffffffffffffffffffffffffff16145b8061180d575061180c81856113a5565b5b91505092915050565b8273ffffffffffffffffffffffffffffffffffffffff16611836826109ea565b73ffffffffffffffffffffffffffffffffffffffff161461188c576040517f08c379a000000000000000000000000000000000000000000000000000000000815260040161188390613717565b60405180910390fd5b600073ffffffffffffffffffffffffffffffffffffffff168273ffffffffffffffffffffffffffffffffffffffff1614156118fc576040517f08c379a00000000000000000000000000000000000000000000000000000000081526004016118f3906135d7565b60405180910390fd5b6119078383836120a8565b61191260008261167f565b6001600360008573ffffffffffffffffffffffffffffffffffffffff1673ffffffffffffffffffffffffffffffffffffffff1681526020019081526020016000206000828254611962919061397c565b925050819055506001600360008473ffffffffffffffffffffffffffffffffffffffff1673ffffffffffffffffffffffffffffffffffffffff16815260200190815260200160002060008282546119b9919061389b565b92505081905550816002600083815260200190815260200160002060006101000a81548173ffffffffffffffffffffffffffffffffffffffff021916908373ffffffffffffffffffffffffffffffffffffffff160217905550808273ffffffffffffffffffffffffffffffffffffffff168473ffffffffffffffffffffffffffffffffffffffff167fddf252ad1be2c89b69c2b068fc378daa952ba7f163c4a11628f55a4df523b3ef60405160405180910390a4505050565b60606000821415611aba576040518060400160405280600181526020017f30000000000000000000000000000000000000000000000000000000000000008152509050611c1a565b600082905060005b60008214611aec578080611ad590613a98565b915050600a82611ae591906138f1565b9150611ac2565b60008167ffffffffffffffff811115611b2e577f4e487b7100000000000000000000000000000000000000000000000000000000600052604160045260246000fd5b6040519080825280601f01601f191660200182016040528015611b605781602001600182028036833780820191505090505b5090505b60008514611c1357600182611b79919061397c565b9150600a85611b889190613ae1565b6030611b94919061389b565b60f81b818381518110611bd0577f4e487b7100000000000000000000000000000000000000000000000000000000600052603260045260246000fd5b60200101907effffffffffffffffffffffffffffffffffffffffffffffffffffffffffffff1916908160001a905350600a85611c0c91906138f1565b9450611b64565b8093505050505b919050565b600081604051602001611c3291906132c8565b6040516020818303038152906040528051906020012060001c9050919050565b600081600001549050919050565b611c6b848484611816565b611c77848484846120ad565b611cb6576040517f08c379a0000000000000000000000000000000000000000000000000000000008152600401611cad90613577565b60405180910390fd5b50505050565b606060405180602001604052806000815250905090565b6060611cde8261160b565b611d1d576040517f08c379a0000000000000000000000000000000000000000000000000000000008152600401611d1490613737565b60405180910390fd5b6000611d27611cbc565b90506000815111611d475760405180602001604052806000815250611d72565b80611d5184611a72565b604051602001611d629291906132df565b6040516020818303038152906040525b915050919050565b60606000825190506000811415611da35760405180602001604052806000815250915050611f33565b60006003600283611db4919061389b565b611dbe91906138f1565b6004611dca9190613922565b90506000602082611ddb919061389b565b67ffffffffffffffff811115611e1a577f4e487b7100000000000000000000000000000000000000000000000000000000600052604160045260246000fd5b6040519080825280601f01601f191660200182016040528015611e4c5781602001600182028036833780820191505090505b5090506000604051806060016040528060408152602001613c61604091399050600181016020830160005b86811015611ef05760038101905062ffffff818a015116603f8160121c168401518060081b905060ff603f83600c1c1686015116810190508060081b905060ff603f8360061c1686015116810190508060081b905060ff603f831686015116810190508060e01b90508084526004840193505050611e77565b506003860660018114611f0a5760028114611f1a57611f25565b613d3d60f01b6002830352611f25565b603d60f81b60018303525b508484525050819450505050505b919050565b611f52828260405180602001604052806000815250612244565b5050565b611f5f8261160b565b611f9e576040517f08c379a0000000000000000000000000000000000000000000000000000000008152600401611f9590613697565b60405180910390fd5b80600660008481526020019081526020016000209080519060200190611fc5929190612480565b505050565b6001816000016000828254019250508190555050565b61207a838383604051602401611ff893929190613539565b6040516020818303038152906040527fe3849f79000000000000000000000000000000000000000000000000000000007bffffffffffffffffffffffffffffffffffffffffffffffffffffffff19166020820180517bffffffffffffffffffffffffffffffffffffffffffffffffffffffff838183161783525050505061207f565b505050565b60008151905060006a636f6e736f6c652e6c6f679050602083016000808483855afa5050505050565b505050565b60006120ce8473ffffffffffffffffffffffffffffffffffffffff1661229f565b15612237578373ffffffffffffffffffffffffffffffffffffffff1663150b7a026120f7611677565b8786866040518563ffffffff1660e01b81526004016121199493929190613487565b602060405180830381600087803b15801561213357600080fd5b505af192505050801561216457506040513d601f19601f82011682018060405250810190612161919061282c565b60015b6121e7573d8060008114612194576040519150601f19603f3d011682016040523d82523d6000602084013e612199565b606091505b506000815114156121df576040517f08c379a00000000000000000000000000000000000000000000000000000000081526004016121d690613577565b60405180910390fd5b805181602001fd5b63150b7a0260e01b7bffffffffffffffffffffffffffffffffffffffffffffffffffffffff1916817bffffffffffffffffffffffffffffffffffffffffffffffffffffffff19161491505061223c565b600190505b949350505050565b61224e83836122b2565b61225b60008484846120ad565b61229a576040517f08c379a000000000000000000000000000000000000000000000000000000000815260040161229190613577565b60405180910390fd5b505050565b600080823b905060008111915050919050565b600073ffffffffffffffffffffffffffffffffffffffff168273ffffffffffffffffffffffffffffffffffffffff161415612322576040517f08c379a0000000000000000000000000000000000000000000000000000000008152600401612319906136b7565b60405180910390fd5b61232b8161160b565b1561236b576040517f08c379a0000000000000000000000000000000000000000000000000000000008152600401612362906135b7565b60405180910390fd5b612377600083836120a8565b6001600360008473ffffffffffffffffffffffffffffffffffffffff1673ffffffffffffffffffffffffffffffffffffffff16815260200190815260200160002060008282546123c7919061389b565b92505081905550816002600083815260200190815260200160002060006101000a81548173ffffffffffffffffffffffffffffffffffffffff021916908373ffffffffffffffffffffffffffffffffffffffff160217905550808273ffffffffffffffffffffffffffffffffffffffff16600073ffffffffffffffffffffffffffffffffffffffff167fddf252ad1be2c89b69c2b068fc378daa952ba7f163c4a11628f55a4df523b3ef60405160405180910390a45050565b82805461248c90613a66565b90600052602060002090601f0160209004810192826124ae57600085556124f5565b82601f106124c757805160ff19168380011785556124f5565b828001600101855582156124f5579182015b828111156124f45782518255916020019190600101906124d9565b5b5090506125029190612506565b5090565b5b8082111561251f576000816000905550600101612507565b5090565b6000612536612531846137e3565b6137b2565b90508281526020810184848401111561254e57600080fd5b612559848285613a24565b509392505050565b600061257461256f84613813565b6137b2565b90508281526020810184848401111561258c57600080fd5b612597848285613a24565b509392505050565b6000813590506125ae81613bdf565b92915050565b6000813590506125c381613bf6565b92915050565b6000813590506125d881613c0d565b92915050565b6000815190506125ed81613c0d565b92915050565b600082601f83011261260457600080fd5b8135612614848260208601612523565b91505092915050565b600082601f83011261262e57600080fd5b813561263e848260208601612561565b91505092915050565b60008135905061265681613c24565b92915050565b60006020828403121561266e57600080fd5b600061267c8482850161259f565b91505092915050565b6000806040838503121561269857600080fd5b60006126a68582860161259f565b92505060206126b78582860161259f565b9150509250929050565b6000806000606084860312156126d657600080fd5b60006126e48682870161259f565b93505060206126f58682870161259f565b925050604061270686828701612647565b9150509250925092565b6000806000806080858703121561272657600080fd5b60006127348782880161259f565b94505060206127458782880161259f565b935050604061275687828801612647565b925050606085013567ffffffffffffffff81111561277357600080fd5b61277f878288016125f3565b91505092959194509250565b6000806040838503121561279e57600080fd5b60006127ac8582860161259f565b92505060206127bd858286016125b4565b9150509250929050565b600080604083850312156127da57600080fd5b60006127e88582860161259f565b92505060206127f985828601612647565b9150509250929050565b60006020828403121561281557600080fd5b6000612823848285016125c9565b91505092915050565b60006020828403121561283e57600080fd5b600061284c848285016125de565b91505092915050565b60006020828403121561286757600080fd5b600082013567ffffffffffffffff81111561288157600080fd5b61288d8482850161261d565b91505092915050565b6000602082840312156128a857600080fd5b60006128b684828501612647565b91505092915050565b6128c8816139b0565b82525050565b6128d7816139c2565b82525050565b60006128e882613858565b6128f2818561386e565b9350612902818560208601613a33565b61290b81613bce565b840191505092915050565b600061292182613863565b61292b818561387f565b935061293b818560208601613a33565b61294481613bce565b840191505092915050565b600061295a82613863565b6129648185613890565b9350612974818560208601613a33565b80840191505092915050565b6000815461298d81613a66565b6129978186613890565b945060018216600081146129b257600181146129c3576129f6565b60ff198316865281860193506129f6565b6129cc85613843565b60005b838110156129ee578154818901526001820191506020810190506129cf565b838801955050505b50505092915050565b6000612a0c60328361387f565b91507f4552433732313a207472616e7366657220746f206e6f6e20455243373231526560008301527f63656976657220696d706c656d656e74657200000000000000000000000000006020830152604082019050919050565b6000612a72605283613890565b91507f222c20226465736372697074696f6e223a2022416e204570696320776f72642060008301527f636f6d62696e61746f722e222c2022696d616765223a2022646174613a696d6160208301527f67652f7376672b786d6c3b6261736536342c00000000000000000000000000006040830152605282019050919050565b6000612afe60188361387f565b91507f416c6c204e46547320686173206265656e206d696e74656400000000000000006000830152602082019050919050565b6000612b3e601c8361387f565b91507f4552433732313a20746f6b656e20616c7265616479206d696e746564000000006000830152602082019050919050565b6000612b7e600a83613890565b91507f54484952445f574f5244000000000000000000000000000000000000000000006000830152600a82019050919050565b6000612bbe60248361387f565b91507f4552433732313a207472616e7366657220746f20746865207a65726f2061646460008301527f72657373000000000000000000000000000000000000000000000000000000006020830152604082019050919050565b6000612c2460198361387f565b91507f4552433732313a20617070726f766520746f2063616c6c6572000000000000006000830152602082019050919050565b6000612c64600b83613890565b91507f5345434f4e445f574f52440000000000000000000000000000000000000000006000830152600b82019050919050565b6000612ca4602c8361387f565b91507f4552433732313a206f70657261746f7220717565727920666f72206e6f6e657860008301527f697374656e7420746f6b656e00000000000000000000000000000000000000006020830152604082019050919050565b6000612d0a600d83613890565b91507f3c2f746578743e3c2f7376673e000000000000000000000000000000000000006000830152600d82019050919050565b6000612d4a60388361387f565b91507f4552433732313a20617070726f76652063616c6c6572206973206e6f74206f7760008301527f6e6572206e6f7220617070726f76656420666f7220616c6c00000000000000006020830152604082019050919050565b6000612db0602a8361387f565b91507f4552433732313a2062616c616e636520717565727920666f7220746865207a6560008301527f726f2061646472657373000000000000000000000000000000000000000000006020830152604082019050919050565b6000612e1660298361387f565b91507f4552433732313a206f776e657220717565727920666f72206e6f6e657869737460008301527f656e7420746f6b656e00000000000000000000000000000000000000000000006020830152604082019050919050565b6000612e7c602e8361387f565b91507f45524337323155524953746f726167653a2055524920736574206f66206e6f6e60008301527f6578697374656e7420746f6b656e0000000000000000000000000000000000006020830152604082019050919050565b6000612ee2600283613890565b91507f227d0000000000000000000000000000000000000000000000000000000000006000830152600282019050919050565b6000612f2260208361387f565b91507f4552433732313a206d696e7420746f20746865207a65726f20616464726573736000830152602082019050919050565b6000612f6260318361387f565b91507f45524337323155524953746f726167653a2055524920717565727920666f722060008301527f6e6f6e6578697374656e7420746f6b656e0000000000000000000000000000006020830152604082019050919050565b6000612fc8602c8361387f565b91507f4552433732313a20617070726f76656420717565727920666f72206e6f6e657860008301527f697374656e7420746f6b656e00000000000000000000000000000000000000006020830152604082019050919050565b600061302e60298361387f565b91507f4552433732313a207472616e73666572206f6620746f6b656e2074686174206960008301527f73206e6f74206f776e00000000000000000000000000000000000000000000006020830152604082019050919050565b6000613094602f8361387f565b91507f4552433732314d657461646174613a2055524920717565727920666f72206e6f60008301527f6e6578697374656e7420746f6b656e00000000000000000000000000000000006020830152604082019050919050565b60006130fa600a83613890565b91507f7b226e616d65223a2022000000000000000000000000000000000000000000006000830152600a82019050919050565b600061313a60218361387f565b91507f4552433732313a20617070726f76616c20746f2063757272656e74206f776e6560008301527f72000000000000000000000000000000000000000000000000000000000000006020830152604082019050919050565b60006131a0600a83613890565b91507f46495253545f574f5244000000000000000000000000000000000000000000006000830152600a82019050919050565b60006131e0601d83613890565b91507f646174613a6170706c69636174696f6e2f6a736f6e3b6261736536342c0000006000830152601d82019050919050565b600061322060318361387f565b91507f4552433732313a207472616e736665722063616c6c6572206973206e6f74206f60008301527f776e6572206e6f7220617070726f7665640000000000000000000000000000006020830152604082019050919050565b6000613286600583613890565b91507f434f4c4f520000000000000000000000000000000000000000000000000000006000830152600582019050919050565b6132c281613a1a565b82525050565b60006132d4828461294f565b915081905092915050565b60006132eb828561294f565b91506132f7828461294f565b91508190509392505050565b600061330f828661294f565b915061331b828561294f565b9150613327828461294f565b9150819050949350505050565b60006133408287612980565b915061334c828661294f565b91506133588285612980565b9150613364828461294f565b915061336f82612cfd565b915081905095945050505050565b600061338882612b71565b9150613394828461294f565b915081905092915050565b60006133aa82612c57565b91506133b6828461294f565b915081905092915050565b60006133cc826130ed565b91506133d8828561294f565b91506133e382612a65565b91506133ef828461294f565b91506133fa82612ed5565b91508190509392505050565b600061341182613193565b915061341d828461294f565b915081905092915050565b6000613433826131d3565b915061343f828461294f565b915081905092915050565b600061345582613279565b9150613461828461294f565b915081905092915050565b600060208201905061348160008301846128bf565b92915050565b600060808201905061349c60008301876128bf565b6134a960208301866128bf565b6134b660408301856132b9565b81810360608301526134c881846128dd565b905095945050505050565b60006040820190506134e860008301856128bf565b6134f560208301846132b9565b9392505050565b600060208201905061351160008301846128ce565b92915050565b600060208201905081810360008301526135318184612916565b905092915050565b600060608201905081810360008301526135538186612916565b905061356260208301856132b9565b61356f60408301846128bf565b949350505050565b60006020820190508181036000830152613590816129ff565b9050919050565b600060208201905081810360008301526135b081612af1565b9050919050565b600060208201905081810360008301526135d081612b31565b9050919050565b600060208201905081810360008301526135f081612bb1565b9050919050565b6000602082019050818103600083015261361081612c17565b9050919050565b6000602082019050818103600083015261363081612c97565b9050919050565b6000602082019050818103600083015261365081612d3d565b9050919050565b6000602082019050818103600083015261367081612da3565b9050919050565b6000602082019050818103600083015261369081612e09565b9050919050565b600060208201905081810360008301526136b081612e6f565b9050919050565b600060208201905081810360008301526136d081612f15565b9050919050565b600060208201905081810360008301526136f081612f55565b9050919050565b6000602082019050818103600083015261371081612fbb565b9050919050565b6000602082019050818103600083015261373081613021565b9050919050565b6000602082019050818103600083015261375081613087565b9050919050565b600060208201905081810360008301526137708161312d565b9050919050565b6000602082019050818103600083015261379081613213565b9050919050565b60006020820190506137ac60008301846132b9565b92915050565b6000604051905081810181811067ffffffffffffffff821117156137d9576137d8613b9f565b5b8060405250919050565b600067ffffffffffffffff8211156137fe576137fd613b9f565b5b601f19601f8301169050602081019050919050565b600067ffffffffffffffff82111561382e5761382d613b9f565b5b601f19601f8301169050602081019050919050565b60008190508160005260206000209050919050565b600081519050919050565b600081519050919050565b600082825260208201905092915050565b600082825260208201905092915050565b600081905092915050565b60006138a682613a1a565b91506138b183613a1a565b9250827fffffffffffffffffffffffffffffffffffffffffffffffffffffffffffffffff038211156138e6576138e5613b12565b5b828201905092915050565b60006138fc82613a1a565b915061390783613a1a565b92508261391757613916613b41565b5b828204905092915050565b600061392d82613a1a565b915061393883613a1a565b9250817fffffffffffffffffffffffffffffffffffffffffffffffffffffffffffffffff048311821515161561397157613970613b12565b5b828202905092915050565b600061398782613a1a565b915061399283613a1a565b9250828210156139a5576139a4613b12565b5b828203905092915050565b60006139bb826139fa565b9050919050565b60008115159050919050565b60007fffffffff0000000000000000000000000000000000000000000000000000000082169050919050565b600073ffffffffffffffffffffffffffffffffffffffff82169050919050565b6000819050919050565b82818337600083830152505050565b60005b83811015613a51578082015181840152602081019050613a36565b83811115613a60576000848401525b50505050565b60006002820490506001821680613a7e57607f821691505b60208210811415613a9257613a91613b70565b5b50919050565b6000613aa382613a1a565b91507fffffffffffffffffffffffffffffffffffffffffffffffffffffffffffffffff821415613ad657613ad5613b12565b5b600182019050919050565b6000613aec82613a1a565b9150613af783613a1a565b925082613b0757613b06613b41565b5b828206905092915050565b7f4e487b7100000000000000000000000000000000000000000000000000000000600052601160045260246000fd5b7f4e487b7100000000000000000000000000000000000000000000000000000000600052601260045260246000fd5b7f4e487b7100000000000000000000000000000000000000000000000000000000600052602260045260246000fd5b7f4e487b7100000000000000000000000000000000000000000000000000000000600052604160045260246000fd5b6000601f19601f8301169050919050565b613be8816139b0565b8114613bf357600080fd5b50565b613bff816139c2565b8114613c0a57600080fd5b50565b613c16816139ce565b8114613c2157600080fd5b50565b613c2d81613a1a565b8114613c3857600080fd5b5056fe416e204e465420772f20494420257320686173206265656e206d696e74656420746f2025734142434445464748494a4b4c4d4e4f505152535455565758595a6162636465666768696a6b6c6d6e6f707172737475767778797a303132333435363738392b2fa2646970667358221220112d31ab7509a6deedea05a529f3b7798bb70feec40cb413ddea677856b083bc64736f6c634300080000333c73766720786d6c6e733d27687474703a2f2f7777772e77332e6f72672f323030302f73766727207072657365727665417370656374526174696f3d27784d696e594d696e206d656574272076696577426f783d273020302033353020333530273e3c7374796c653e2e62617365207b2066696c6c3a2077686974653b20666f6e742d66616d696c793a2073657269663b20666f6e742d73697a653a20323470783b207d3c2f7374796c653e3c726563742077696474683d273130302527206865696768743d2731303025272066696c6c3d27626c61636b27202f3e3c7465787420783d273530252720793d273530252720636c6173733d27626173652720646f6d696e616e742d626173656c696e653d276d6964646c652720746578742d616e63686f723d276d6964646c65273e3c73766720786d6c6e733d27687474703a2f2f7777772e77332e6f72672f323030302f73766727207072657365727665417370656374526174696f3d27784d696e594d696e206d656574272076696577426f783d273020302033353020333530273e3c7374796c653e2e62617365207b2066696c6c3a2077686974653b20666f6e742d66616d696c793a2073657269663b20666f6e742d73697a653a20323470783b207d3c2f7374796c653e3c726563742077696474683d273130302527206865696768743d2731303025272066696c6c3d27272f3e3c7465787420783d273530252720793d273530252720636c6173733d27626173652720646f6d696e616e742d626173656c696e653d276d6964646c652720746578742d616e63686f723d276d6964646c65273e",
  "linkReferences": {},
  "deployedLinkReferences": {}
}